:100000008CEF06F00000000000EF00F000000000A0
:0A0010000000000000000000F3D71C
:08001C000000000000001200CA
:0E0024002D0E0D6E0D2EFED7000000001200F6
:10003200140E0C6EBE0E0D6E0D2EFED70C2EFCD7BE
:0400420000001200A8
:10004600010117BF02D0829601D0828617BD02D069
:10005600829401D0828417BB02D0829201D0828220
:1000660017B902D0829001D082800001F9B102D086
:10007600828801D08298828ACEDF829A010117B7E0
:1000860002D0829601D0828617B502D0829401D022
:10009600828417B302D0829201D0828217B102D035
:1000A600829001D082800001F9B102D0828801D00D
:1000B6008298828AB0DF829AF9A102D0B7DF01D096
:0400C600AEDF120097
:1000CA000B6A0A6A096A086A0E6A03340836045017
:1000DA00085E0550D8A0053C095E0650D8A0063C2B
:1000EA000A5E0750D8A0073C0B5EE86AD8A0010E4A
:1000FA000E5E0336070E0C6E0334083609360A36CE
:10010A000B360E36045003A012D0085E0550D8A054
:10011A00053C095E0650D8A0063C0A5E0750D8A0E6
:10012A00073C0B5EE86AD8A0010E0E5E11D00826C5
:10013A000550D8B0053C09260650D8B0063C0A2618
:10014A000750D8B0073C0B26E86AD8B0010E0E2635
:10015A0003360C2ED1D70234083609360A360B3646
:10016A000E36045003A012D0085E0550D8A0053CF4
:10017A00095E0650D8A0063C0A5E0750D8A0073C84
:10018A000B5EE86AD8A0010E0E5E11D00826055053
:10019A00D8B0053C09260650D8B0063C0A260750B6
:1001AA00D8B0073C0B26E86AD8B0010E0E260236F4
:1001BA00070E0C6E0234083609360A360B360E362E
:1001CA00045002A012D0085E0550D8A0053C095E72
:1001DA000650D8A0063C0A5E0750D8A0073C0B5E22
:1001EA00E86AD8A0010E0E5E11D008260550D8B0D4
:1001FA00053C09260650D8B0063C0A260750D8B056
:10020A00073C0B26E86AD8B0010E0E2602360C2EE1
:10021A00D1D70134083609360A360B360E36045061
:10022A0002A012D0085E0550D8A0053C095E06500F
:10023A00D8A0063C0A5E0750D8A0073C0B5EE86AC5
:10024A00D8A0010E0E5E11D008260550D8B0053C84
:10025A0009260650D8B0063C0A260750D8B0073CF3
:10026A000B26E86AD8B0010E0E260136070E0C6E70
:10027A000134083609360A360B360E36045001A008
:10028A0012D0085E0550D8A0053C095E0650D8A0D9
:10029A00063C0A5E0750D8A0073C0B5EE86AD8A065
:1002AA00010E0E5E11D008260550D8B0053C09266D
:1002BA000650D8B0063C0A260750D8B0073C0B2691
:1002CA00E86AD8B0010E0E2601360C2ED1D70034BA
:1002DA00083609360A360B360E36045001A012D0FB
:1002EA00085E0550D8A0053C095E0650D8A0063C19
:1002FA000A5E0750D8A0073C0B5EE86AD8A0010E38
:10030A000E5E11D008260550D8B0053C09260650C5
:10031A00D8B0063C0A260750D8B0073C0B26E86A34
:10032A00D8B0010E0E260036070E0C6E00340836C1
:10033A0009360A360B360E36045000A012D0085E73
:10034A000550D8A0053C095E0650D8A0063C0A5EB6
:10035A000750D8A0073C0B5EE86AD8A0010E0E5ED3
:10036A0011D008260550D8B0053C09260650D8B049
:10037A00063C0A260750D8B0073C0B26E86AD8B0D4
:10038A00010E0E2600360C2ED1D700B00ED0045026
:10039A0008260550D8B0053C09260650D8B0063CB8
:0C03AA000A260750D8B0073C0B261200B2
:1003B6000DC102F00EC103F010C100F011C101F031
:1003C600010E0101105F000E115B0050011009E0E3
:1003D60002C0E1FF03C0E2FF0FC1E6FF024A032AA3
:0C03E600EBD70DC100F00EC101F01200B9
:0E03F2000001F9910DC117F125DEF98112000D
:100400000101136B146B000E145D02E10A0E135D03
:100410000BE213511125E16E14511221E26E200EF0
:10042000E66E134B142BEFD713511125E16E1451C7
:100430001221E26EE66A010E135F000E145B135187
:100440001125156F14511221166F0A0E046E000E3D
:10045000056E066E076E0DC100F00EC101F00FC1F2
:1004600002F010C103F031DE08C000F009C001F055
:100470000AC002F00BC003F0300E002615C1E1FFE8
:1004800016C1E2FF00C0E6FF0A0E046E000E056E04
:10049000066E076E0DC100F00EC101F00FC102F033
:1004A00010C103F012DE00C00DF101C00EF102C058
:1004B0000FF103C010F1000E046E031808E10450A0
:1004C000021805E10450011802E10050000A01E1A0
:0E04D00005D0010E135F000E145BB1D71200B1
:1004DE000B1E0A1E091E081E082AD8B4092AD8B4F3
:0804EE000A2AD8B40B2A1200FF
:1004F6000450085E0550D8A0053C095E0650D8A0F9
:10050600063C0A5E0750D8A0073C0B5E0336070E72
:100516000C6E0334083609360A360B36045003A02F
:100526000ED0085E0550D8A0053C095E0650D8A03E
:10053600063C0A5E0750D8A0073C0B5E0DD0082685
:100546000550D8B0053C09260650D8B0063C0A2608
:100556000750D8B0073C0B2603360C2EDAD70234E8
:10056600083609360A360B36045003A00ED0085E4C
:100576000550D8A0053C095E0650D8A0063C0A5E88
:100586000750D8A0073C0B5E0DD008260550D8B002
:10059600053C09260650D8B0063C0A260750D8B0B6
:1005A600073C0B260236070E0C6E02340836093657
:1005B6000A360B36045002A00ED0085E0550D8A0AD
:1005C600053C095E0650D8A0063C0A5E0750D8A036
:1005D600073C0B5E0DD008260550D8B0053C092611
:1005E6000650D8B0063C0A260750D8B0073C0B2662
:1005F60002360C2EDAD70134083609360A360B369F
:10060600045002A00ED0085E0550D8A0053C095E35
:100616000650D8A0063C0A5E0750D8A0073C0B5EE1
:100626000DD008260550D8B0053C09260650D8B08E
:10063600063C0A260750D8B0073C0B260136070EA3
:100646000C6E0134083609360A360B36045001A002
:100656000ED0085E0550D8A0053C095E0650D8A00D
:10066600063C0A5E0750D8A0073C0B5E0DD0082654
:100676000550D8B0053C09260650D8B0063C0A26D7
:100686000750D8B0073C0B2601360C2EDAD70034BB
:10069600083609360A360B36045001A00ED0085E1D
:1006A6000550D8A0053C095E0650D8A0063C0A5E57
:1006B6000750D8A0073C0B5E0DD008260550D8B0D1
:1006C600053C09260650D8B0063C0A260750D8B085
:1006D600073C0B260036070E0C6E0034083609362A
:1006E6000A360B36045000A00ED0085E0550D8A07E
:1006F600053C095E0650D8A0063C0A5E0750D8A005
:10070600073C0B5E0DD008260550D8B0053C0926DF
:100716000650D8B0063C0A260750D8B0073C0B2630
:1007260000360C2EDAD700B00ED00450082605503D
:10073600D8B0053C09260650D8B0063C0A26075014
:08074600D8B0073C0B2612009D
:10074E000450000A12E10550000A0FE10650000A9B
:10075E000CE10750000A09E1FF0E006EFF0E016E5C
:10076E00FF0E026E7F0E036E97D00C6A07BE0C2A28
:10077E000D6A0B6A0A6A096A086A035002100110B0
:10078E000010D8B484D0035007180E6E0EBE0D1E86
:10079E0007AE0BD0041E051E061E071E042AD8B473
:1007AE00052AD8B4062AD8B4072A03AE0BD0001EE9
:1007BE00011E021E031E002AD8B4012AD8B4022A32
:1007CE00D8B4032A035007100E6E0EBE1CD08CDE5A
:1007DE000CBE36D00DAE5BD0001E011E021E031ED7
:1007EE00002AD8B4012AD8B4022AD8B4032A081E83
:1007FE00091E0A1E0B1E082AD8B4092AD8B40A2AC2
:10080E00D8B40B2A44D007AE15D003BE0DD003507A
:10081E000B6E02500A6E0150096E0050086E036A8C
:10082E00026A016A006AD6D7036A026A016A006A1E
:10083E00002A000C031E021E011E001E0C8EC7D7BE
:10084E00082AD8B4092AD8B40A2AD8B40B2A0450D4
:10085E00085CD8A4BFD70550095CD8A4BBD70650F6
:10086E000A5CD8A4B7D707500B5CD8A4B3D70B6AD1
:10087E000A6A096A086A002AD8B4012AD8B4022A78
:10088E00D8B4032A03AEA6D70E6A0E88FF0C0E6AE2
:0A089E000CA001D01DDE000F1200B7
:1008A800120E006E000E016E830E0024E16E0F0E14
:0A08B8000120E26EFF0EE66E120052
:1008C2000900F5CFE6FF0006FBE10106F9E112009F
:1008D20010D0800E0101016F1AD0C00E016F17D027
:1008E200940E016F14D0D40E016F11D0800E016FDF
:1008F2000ED001010151010AECE00151020AEDE0C2
:100902000151030AEDE00151040AEDE0EFD70205BF
:10091200006E0151002600C001F100C017F123EC66
:1009220000F0F991FD6BFD5101010325E96E000E06
:100932000421EA6EEE520DE00001FD510101032592
:10094200E96E000E0421EA6EEECF0DF151DDFD2BB2
:08095200EAD70001F98112004F
:10095A00949A94989490949294949496829A829861
:10096A00829682948292829019EC00F019EC00F03F
:10097A0019EC00F082828280828A0EEC00F0829A60
:10098A0019EC00F0828A0EEC00F0829A19EC00F061
:10099A00828A0EEC00F0829A19EC00F08290828A28
:1009AA000EEC00F0829A19EC00F0828A0EEC00F04C
:1009BA00829A82928286828A0EEC00F0829A19ECDE
:1009CA0000F082968280828A0EEC00F0829A8290EF
:1009DA00828A0EEC00F0829A19EC00F0828A0EEC00
:1009EA0000F0829A8280828A0EEC00F0829A19ECD8
:1009FA0000F08290828A0EEC00F0829A82868284CB
:100A0A0082828280828A0EEC00F0829A19EC00F0CF
:060A1A000001F981120049
:100A20000101076B086B01C109F102C10AF103C1A1
:100A30000BF104C10CF1800E0419006E800E005CF5
:100A400008E1000E035D05E1000E025D02E1000E0B
:100A5000015D10E2010E076F000E086F096B0A6B53
:100A60000B6B0C6B0151095F02510A5B03510B5B6D
:100A700004510C5B09C10DF10AC10EF10BC10FF15C
:100A80000CC110F105C111F106C112F1B9DC0B0E58
:100A90000001FD6F000EFE6F000E006EFE51005C47
:100AA00002E1FD5100081FE2FD5101010525E16E43
:100AB0000001FE5101010621E26E010E0001FD5D03
:100AC000006E000EFE59016E005001010525E96E11
:100AD00001500621EA6EEECFE6FF010E0001FD5F38
:100AE000000EFE5BD9D705C1E1FF06C1E2FF200E73
:100AF000E66E01010751081123E00001FD6BFE6B5A
:100B0000FD5101010525E96E0001FE51010106219B
:100B1000EA6EEE50200A04E10001FD4BFE2BF0D7F7
:100B20000001010EFD5F000EFE5BFD510101052578
:100B3000E16E0001FE5101010621E26E2D0EE66E0E
:020B40001200A1
:100B4200010E0101176F23EC00F00F0E0101176F68
:100B520023EC00F03A6A3B6A3C6A3D6A366A376ABD
:100B6200386A396A326A336A346A356AF793F795B2
:100B7200F791F787F799F78BF79DF79F3F6A3E6AE0
:100B8200166A156AD90E01010D6F000E0E6F0F6BFA
:100B92000F0E106F000E116F0DDCE80E0D6F000EC0
:100BA2000E6F0F6B0F0E106F000E116F03DC120031
:100BB2000001FF6BFF51FD25E96E000EFE21EA6E7A
:100BC200EE520BE0FF51FD25E96E000EFE21EA6EAA
:0C0BD200EECF0DF10DDCFF2BEDD7120073
:100BDE00220E0C6E086A096A0A6A0B6A0C06D8B4F1
:100BEE001FD0D8900B320A32093208320332023249
:100BFE0001320032D8A0F2D70C06D8B409D0045076
:100C0E0008260550092206500A2207500B22EAD761
:100C1E00045008260550092206500A2207500B22BE
:020C2E001200B2
:100C30000101016B026BFDC003F0FEC004F0FDC0BA
:100C400005F0FEC006F003C0E9FF04C0EAFFEE5065
:100C5000200A04E10151021101E110D0010E016FDF
:100C6000000E026F03C0E9FF04C0EAFF05C0E1FF08
:100C700006C0E2FFEECFE6FF054A062A03C001F0F8
:100C800004C002F0034A042A01C0E9FF02C0EAFFDF
:100C9000EE50000AD8E1FDC000F0FEC001F01200E5
:100CA0000001FD6BFF6B0101006B100E016F040E64
:100CB000005D2FE2F00E836E120E006E000E016ECC
:100CC000830E0024E16E0F0E0120E26E011D006E06
:100CD00000C0E6FF0EEC00F00EEC00F00F0E8314E7
:100CE000006E00C0FEF000520CE0FFC0FDF00001FD
:100CF000FE5304E0FE33FE9FFD2BF9D7040E0101E5
:100D0000006F01370191040E0001FF270101002B44
:080D1000CED7FDC000F0120077
:100D1800EDEC0AF0C5DD1DDE010E0101176F23ECB5
:100D280000F00C0E0101176F23EC00F0010E010119
:100D3800016F010E026F270E036F000E046FC5DDF1
:100D48000F0E0B6E070E0C6E9A0E0D6E0D2EFED743
:100D58000C2EFCD70B2EFAD70000EFDE9DDF00C06B
:100D6800FAF00052D8B4D1D3050E0B6E360E0C6EC5
:100D78002C0E0D6E0D2EFED70C2EFCD70B2EFAD78F
:100D880000000001FA05006E016A000E015A170EF4
:100D98000024E96E000E0120EA6EEECF00F000C0DC
:100DA800FAF0D90EE16E000EE26E1550E126D8B0C9
:100DB800E22A00C0E6FFF7A104D0FA51430A01E095
:100DC800CDD774D3F7BD08D0D9512A0A04E0D95138
:100DD8002F0A01E001D017D0D9512B0A08E1DA51C6
:100DE8002B0A04E0DA512D0A01E001D00CD0D951C8
:100DF8002D0A08E1DA512B0A04E0DA512D0A01E044
:100E080001D001D011D0020E0101016F010E026F55
:100E1800400E036F000E046F58DD0C0E0101176FB2
:100E280023EC00F0F7815BD3F7A913D0F7AF11D00B
:100E3800020E0101016F010E026F9A0E036F000E80
:100E4800046F43DD0C0E0101176F23EC00F0F781EE
:100E580046D3F7AD17D03F50000A14E1010E010147
:100E6800176F23EC00F0010E0101016F010E026FF4
:100E7800FBC003F1FCC004F128DD0F0E0101176F60
:100E880023EC00F03F50000A1DE1F7AB15D0FA51F2
:100E98002D0A09E1F7B301D0F783F79BFAC00DF1EA
:100EA800F9EC01F01CD3FA512B0A06E1F79BFAC0C2
:100EB8000DF1F9EC01F013D3FAC03FF03E6AF79751
:100EC800F789ACD0F79B3E50000A06E13FC03EF0E0
:100ED800FAC03FF0F78F7DD01504016E026A000E4C
:100EE800025A800E0218006E800E005C02E1000EAD
:100EF800015C25E31504006E016A000E015AD90E43
:100F08000024E96E000E0120EA6EEE503E1817E14B
:100F1800D90EE96E000EEA6E1550E926D8B0EA2A15
:100F2800EE502B0A0CE0D90EE96E000EEA6E155051
:100F3800E926D8B0EA2AEE502D0A01E039D0020E8F
:100F4800155C016E026A000E025A800E0218006ECD
:100F5800800E005C02E1000E015C29E3020E155CC4
:100F6800006E016A000E015AD90E0024E96E000EC7
:100F78000120EA6EEE503E181AE11504006E016A6F
:100F8800000E015AD90E0024E96E000E0120EA6E07
:100F9800EE503F180CE1D90EE96E000EEA6E1550BE
:100FA800E926D8B0EA2AEE50FA1901E101D011D0A9
:100FB800020E0101016F010E026F8E0E036F000E0B
:100FC800046F83DC0C0E0101176F23EC00F0F7812E
:100FD80086D2F7A923D03F502D0A14E03F502B0AA0
:100FE80011E0020E0101016F010E026F840E036F02
:100FF800000E046F6ADC0C0E0101176F23EC00F081
:10100800F7816DD23F502D0A09E1F7B501D0F78578
:101018003E502D0A03E1F7952B0E166EFAC00DF11E
:10102800F9EC01F05CD289DD5AD201010C0E176F80
:1010380023EC00F0FAC00DF1F9EC01F0F78DF79F01
:10104800F7A96AD11650000A08E13E50000A03E1E8
:101058003FC016F002D03EC016F00001F7A314D02E
:10106800006A016A026A036A3A50005E3B50015AFC
:101078003C50025A3D50035A00C03AF001C03BF0C0
:1010880002C03CF003C03DF0F7A514D0006A016A25
:10109800026A036A3650005E3750015A3850025AC5
:1010A8003950035A00C036F001C037F002C038F09A
:1010B80003C039F0A5D036503A24006E37503B2093
:1010C800016E38503C20026E39503D20036E00C03E
:1010D80032F001C033F002C034F003C035F000C074
:1010E8003AF001C03BF002C03CF003C03DF097D09D
:1010F8003AC000F03BC001F03CC002F03DC003F034
:101108003650005E3750015A3850025A3950035A47
:1011180000C032F001C033F002C034F003C035F033
:1011280000C03AF001C03BF002C03CF003C03DF003
:1011380076D03AC000F03BC001F03CC002F03DC0A0
:1011480003F036C004F037C005F038C006F039C0E7
:1011580007F041DD00C032F001C033F002C034F0C6
:1011680003C035F000C03AF001C03BF002C03CF0CB
:1011780003C03DF054D036503710381039101BE0FA
:1011880036C004F037C005F038C006F039C007F0A3
:101198003AC000F03BC001F03CC002F03DC003F093
:1011A800A7EC03F000C032F001C033F002C034F005
:1011B80003C035F012D00001F781020E0101016F62
:1011C800010E026FCA0E036F000E046F69EC04F083
:1011D8000C0E0101176F23EC00F021D0020E010163
:1011E800016F010E026FB80E036F000E046F69ECF9
:1011F80004F00C0E0101176F23EC00F0F7810FD0FB
:1012080016502B0AD8B457D716502D0AD8B470D711
:1012180016502A0A8EE016502F0AADE0DFD70001DB
:10122800F7B167D0800E000A006E800E3518005C9A
:1012380008E13450000805E133507F0802E13250DC
:10124800FF0857E3800E3518006E7F0E005C08E13A
:10125800FF0E345C05E1800E335C02E1000E325C67
:1012680048E3E80E01010D6F000E0E6F0F6B0F0EB5
:10127800106F000E116FDBEC01F032C001F133C0CA
:1012880002F134C003F135C004F1E80E056F000E19
:10129800066F10EC05F0E80E0001FD6F000EFE6F02
:1012A800C3DC00C0FBF001C0FCF000C0FDF001C0D1
:1012B800FEF07BDC3F6A3E6A166AF79FF795366A4E
:1012C800376A386A396A32C03AF033C03BF034C002
:1012D8003CF035C03DF0156AD90E01010D6F000EC6
:1012E8000E6F0F6B0F0E106F000E116FDBEC01F01D
:1012F80013D00001F781020E0101016F010E026F88
:10130800AC0E036F000E046F69EC04F00C0E0101C3
:10131800176F23EC00F0E3D00001F797F789DFD0CF
:10132800F7AD16D03F50000A12E1F781020E010115
:10133800016F010E026F580E036F000E046F69EC07
:1013480004F00C0E0101176F23EC00F0C8D0F79DD4
:10135800300EFA5DF86FF79BF7A903D0F7BF01D0FD
:10136800F78FF7A74FD0800E000A006E800E3D1849
:10137800005C08E13C50000805E13B507F0802E1B1
:101388003A50FF0810E3800E3D18006E7F0E005C97
:1013980008E1FF0E3C5C05E1800E3B5C02E1000EBB
:1013A8003A5C01E312D0020E0101016F010E026FD7
:1013B8004C0E036F000E046F69EC04F00C0E010173
:1013C800176F23EC00F0F7811CD00A0E006E000E98
:1013D800016E026E036E3AC004F03BC005F03CC0DB
:1013E80006F03DC007F0EFEC05F0F85100243A6E26
:1013F800000E01203B6E000E02203C6E000E032002
:101408003D6E4FD0800E000A006E800E3918005CC9
:1014180008E13850000805E137507F0802E13650EE
:10142800FF0810E3800E3918006E7F0E005C08E19B
:10143800FF0E385C05E1800E375C02E1000E365C79
:1014480001E312D0020E0101016F010E026F780E46
:10145800036F000E046F69EC04F00C0E0101176FA6
:1014680023EC00F0F7811DD000010A0E006E000E7B
:10147800016E026E036E36C004F037C005F038C046
:1014880006F039C007F0EFEC05F0F8510024366E8D
:10149800000E0120376E000E0220386E000E032069
:1014A800396EFAC00DF1F9EC01F019D0FA512B0A96
:1014B800D8B488D4FA512D0AD8B484D4FA512F0A52
:1014C800D8B480D4FA512A0AD8B47CD4FA51430A41
:1014D800D8B4A9D5FA513D0AD8B4A7D521D70F0E4B
:1014E800155C02E2152A11D0020E0101016F010EEE
:1014F800026F660E036F000E046F69EC04F00C0EA9
:0E1508000101176F23EC00F0F78128D4FFD704
:1015DA0010EE15F0C40E006E010E016E160EF66EB8
:0E15EA00150EF76E000EF86E61EC04F01200A4
:0115160000D4
:0115170000D3
:101518003738392F3435362A3132332D43303D2B85
:0B15280043414C43554C41544F5200CE
:0415330000000000B4
:0415370000000000B0
:04153B0000000000AC
:01153F0000AB
:0115400000AA
:0C1541004552523A206F70657220310054
:0C154D004552523A204F7065725F310029
:0E1559004552523A204E6F6E206F7065720040
:101567004552523A20496E707574206578636565F7
:0215770064000E
:0C1579004552523A204F7065725F3200FC
:0A1585004552523A206F7065720063
:0C158F004552523A206F70657220320005
:10159B004552523A206F706572616E6473203E2023
:0215AB0032000C
:0C15AD004552523A20526573756C740070
:1015B9004552523A20696E76616C6964204F7065B4
:0215C9007200AE
:0F15CB004552523A206F70657232203D20300039
:020000040030CA
:0D000100220F0EFF0181FF0FC00FE00F4026
:00000001FF
