:10000000BEEF04F00000000000EF00F00000000070
:0A0010000000000000000000F3D71C
:08001C000000000000001200CA
:0E0024002D0E0D6E0D2EFED7000000001200F6
:10003200140E0C6EBE0E0D6E0D2EFED70C2EFCD7BE
:0400420000001200A8
:100046000001FCBF02D0829601D08286FCBD02D0A0
:10005600829401D08284FCBB02D0829201D082823B
:10006600FCB902D0829001D08280E7B102D08288AA
:1000760001D08298828ACFDF829AFCB702D082961C
:1000860001D08286FCB502D0829401D08284FCB372
:1000960002D0829201D08282FCB102D0829001D03D
:1000A6008280E7B102D0828801D08298828AB3DF4B
:0E00B600829AE7A102D0BADF01D0B1DF1200BA
:1000C400086A096A100E0C6E0134083609360450A9
:1000D400085E0550D8A0053C095ED8B007D004508E
:1000E40008260550D8B0053C0926D89000360136BC
:0600F4000C2EEAD71200F9
:1000FA00F5C002F0F6C003F0F8C000F0F9C001F054
:10010A00010E0001F85F000EF95B0050011009E0D2
:10011A0002C0E1FF03C0E2FFF7C0E6FF024A032A7A
:0C012A00EBD7F5C000F0F6C001F01200A9
:0E0136000001E791F5C0FCF083DFE7811200C5
:100144000001F96B050EF95D0AE2F951F725E16E3C
:10015400000EF821E26E200EE66EF92BF3D7F9516A
:10016400F725E16E000EF821E26EE66AF907F9510F
:10017400F725FA6F000EF821FB6F0A0E046E000ECD
:10018400056EF5C000F0F6C001F09ADF08C000F07B
:1001940009C001F0300E0026FAC0E1FFFBC0E2FF07
:1001A40000C0E6FF0A0E046E000E056EF5C000F0F6
:1001B400F6C001F085DF00C0F5F001C0F6F0000ED6
:1001C400011802E1000E001801E102D0F907CFD7AF
:0201D400120017
:1001D6000B1E0A1E091E081E082AD8B4092AD8B4FE
:0801E6000A2AD8B40B2A12000A
:1001EE000450085E0550D8A0053C095E0650D8A004
:1001FE00063C0A5E0750D8A0073C0B5E0336070E7E
:10020E000C6E0334083609360A360B36045003A03A
:10021E000ED0085E0550D8A0053C095E0650D8A049
:10022E00063C0A5E0750D8A0073C0B5E0DD0082690
:10023E000550D8B0053C09260650D8B0063C0A2613
:10024E000750D8B0073C0B2603360C2EDAD70234F3
:10025E00083609360A360B36045003A00ED0085E57
:10026E000550D8A0053C095E0650D8A0063C0A5E93
:10027E000750D8A0073C0B5E0DD008260550D8B00D
:10028E00053C09260650D8B0063C0A260750D8B0C1
:10029E00073C0B260236070E0C6E02340836093662
:1002AE000A360B36045002A00ED0085E0550D8A0B8
:1002BE00053C095E0650D8A0063C0A5E0750D8A041
:1002CE00073C0B5E0DD008260550D8B0053C09261C
:1002DE000650D8B0063C0A260750D8B0073C0B266D
:1002EE0002360C2EDAD70134083609360A360B36AA
:1002FE00045002A00ED0085E0550D8A0053C095E41
:10030E000650D8A0063C0A5E0750D8A0073C0B5EEC
:10031E000DD008260550D8B0053C09260650D8B099
:10032E00063C0A260750D8B0073C0B260136070EAE
:10033E000C6E0134083609360A360B36045001A00D
:10034E000ED0085E0550D8A0053C095E0650D8A018
:10035E00063C0A5E0750D8A0073C0B5E0DD008265F
:10036E000550D8B0053C09260650D8B0063C0A26E2
:10037E000750D8B0073C0B2601360C2EDAD70034C6
:10038E00083609360A360B36045001A00ED0085E28
:10039E000550D8A0053C095E0650D8A0063C0A5E62
:1003AE000750D8A0073C0B5E0DD008260550D8B0DC
:1003BE00053C09260650D8B0063C0A260750D8B090
:1003CE00073C0B260036070E0C6E00340836093635
:1003DE000A360B36045000A00ED0085E0550D8A089
:1003EE00053C095E0650D8A0063C0A5E0750D8A010
:1003FE00073C0B5E0DD008260550D8B0053C0926EB
:10040E000650D8B0063C0A260750D8B0073C0B263B
:10041E0000360C2EDAD700B00ED004500826055048
:10042E00D8B0053C09260650D8B0063C0A2607501F
:08043E00D8B0073C0B261200A8
:100446000450000A12E10550000A0FE10650000AA6
:100456000CE10750000A09E1FF0E006EFF0E016E67
:10046600FF0E026E7F0E036E97D00C6A07BE0C2A33
:100476000D6A0B6A0A6A096A086A035002100110BB
:100486000010D8B484D0035007180E6E0EBE0D1E91
:1004960007AE0BD0041E051E061E071E042AD8B47E
:1004A600052AD8B4062AD8B4072A03AE0BD0001EF4
:1004B600011E021E031E002AD8B4012AD8B4022A3D
:1004C600D8B4032A035007100E6E0EBE1CD08CDE65
:1004D6000CBE36D00DAE5BD0001E011E021E031EE2
:1004E600002AD8B4012AD8B4022AD8B4032A081E8E
:1004F600091E0A1E0B1E082AD8B4092AD8B40A2ACD
:10050600D8B40B2A44D007AE15D003BE0DD0035085
:100516000B6E02500A6E0150096E0050086E036A97
:10052600026A016A006AD6D7036A026A016A006A29
:10053600002A000C031E021E011E001E0C8EC7D7C9
:10054600082AD8B4092AD8B40A2AD8B40B2A0450DF
:10055600085CD8A4BFD70550095CD8A4BBD7065001
:100566000A5CD8A4B7D707500B5CD8A4B3D70B6ADC
:100576000A6A096A086A002AD8B4012AD8B4022A83
:10058600D8B4032A03AEA6D70E6A0E88FF0C0E6AED
:0A0596000CA001D01DDE000F1200C2
:1005A000120E006E000E016E830E0024E16E0F0E1F
:0A05B0000120E26EFF0EE66E12005D
:1005BA000900F5CFE6FF0006FBE10106F9E11200AA
:1005CA0010D0800E0001EB6F1AD0C00EEB6F17D05F
:1005DA00940EEB6F14D0D40EEB6F11D0800EEB6F2C
:1005EA000ED00001EB51010AECE0EB51020AEDE0FA
:1005FA00EB51030AEDE0EB51040AEDE0EFD7EC050D
:10060A00006EEB51002600C0EBF000C0FCF016DDD6
:10061A00E791EF6BEF51ED25E96E000EEE21EA6EE0
:10062A00EE520BE0EF51ED25E96E000EEE21EA6E77
:0E063A00EECFF5F07BDDEF2BEDD7E781120060
:10064800949A94989490949294949496829A829876
:100658008296829482928290E8DCE7DCE6DC8282F1
:100668008280828AD7DC829AE0DC828AD3DC829A12
:10067800DCDC828ACFDC829AD8DC8290828ACADC6F
:10068800829AD3DC828AC6DC829A82928286828AA5
:10069800C1DC829ACADC82968280828ABBDC829A1A
:1006A8008290828AB7DC829AC0DC828AB3DC829A22
:1006B8008280828AAFDC829AB8DC8290828AAADC45
:1006C800829A8286828482828280828AA3DC829A4B
:0806D800ACDC0001E781120017
:1006E0000001F16BF26BEBC0F3F0ECC0F4F0800EA4
:1006F000EC19006E800E005C02E1000EEB5D0BE277
:10070000010EF16F000EF26FEB510008F36FECC0B9
:10071000F4F0000EF457F3C0F5F0F4C0F6F0EDC0BD
:10072000F7F0EEC0F8F00EDD060EEF6F000EF06F82
:10073000000E006EF051005C02E1EF51000819E27A
:10074000EF51ED25E16EF051EE21E26E010EEF5D0D
:10075000006E000EF059016E0050ED25E96E01505B
:10076000EE21EA6EEECFE6FF010EEF5F000EF05BCA
:10077000DFD7EDC0E1FFEEC0E2FF200EE66EF151E3
:10078000F2111AE0EF6BF06BEF51ED25E96EF051CD
:10079000EE21EA6EEE50200A03E1EF4BF02BF4D786
:1007A000010EEF5F000EF05BEF51ED25E16EF051B1
:0A07B000EE21E26E2D0EE66E12003F
:1007BA00010E0001FC6F42DC0F0EFC6F3FDC3A6A4F
:1007CA003B6A3C6A3D6A366A376A386A396A326A0B
:1007DA00336A346A356AE593E595E591E587E599E3
:1007EA00E58BE59D3F6A3E6A166A156AC70EF56F84
:1007FA00000EF66FF76B0F0EF86F000EF96F78DCCC
:10080A00D60EF56F000EF66FF76B0F0EF86F000E2F
:06081A00F96F6EDC120014
:100820000001ED6BED51EB25E96E000EEC21EA6E57
:10083000EE520BE0ED51EB25E96E000EEC21EA6E75
:0C084000EECFF5F078DCED2BEDD71200C8
:10084C00220E0C6E086A096A0A6A0B6A0C06D8B486
:10085C001FD0D8900B320A320932083203320232DE
:10086C0001320032D8A0F2D70C06D8B409D004500B
:10087C0008260550092206500A2207500B22EAD7F7
:10088C00045008260550092206500A2207500B2254
:02089C00120048
:10089E000001ED6BEE6BEBC003F0ECC004F0EBC0AF
:1008AE0005F0ECC006F003C0E9FF04C0EAFFEE500D
:1008BE00200A04E1ED51EE1101E110D0010EED6FB1
:1008CE00000EEE6F03C0E9FF04C0EAFF05C0E1FFB2
:1008DE0006C0E2FFEECFE6FF054A062A03C001F08E
:1008EE0004C002F0034A042A01C0E9FF02C0EAFF75
:1008FE00EE50000AD8E1EBC000F0ECC001F012009F
:10090E000001EB6BED6BEE6B100EEF6F040EEE5DF8
:10091E002BE2F00E836E120E006E000E016E830E31
:10092E000024E16E0F0E0120E26EEF1D006E00C07E
:10093E00E6FF0EEC00F00EEC00F00F0E8314006ECE
:10094E0000C0ECF000520AE0EDC0EBF0EC5304E016
:10095E00EC33EC9FEB2BFAD7040EEE6FEF37EF91E3
:0E096E00040EED27EE2BD2D7EBC000F01200E6
:10097C00B2EC08F00FDE62DE010EFC6F23EC00F02F
:10098C000C0EFC6F23EC00F0010EEB6F010EEC6F04
:10099C00270EED6F000EEE6F12DE0F0E0B6E070EB4
:1009AC000C6E9A0E0D6E0D2EFED70C2EFCD70B2E48
:1009BC00FAD70000FCDEA5DF00C0E8F00052D8B486
:1009CC0070D3050E0B6E360E0C6E2C0E0D6E0D2E9E
:1009DC00FED70C2EFCD70B2EFAD70000E805006EC4
:1009EC00016A000E015A170E0024E96E000E012058
:1009FC00EA6EEECF00F000C0E8F0C70EE16E000E1C
:100A0C00E26E1550E126D8B0E22A00C0E6FFE5A15F
:100A1C0004D0E851430A01E0CED716D3E5BD08D087
:100A2C00C7512A0A04E0C7512F0A01E001D017D0A0
:100A3C00C7512B0A08E1C8512B0A04E0C8512D0AF2
:100A4C0001E001D00CD0C7512D0A08E1C8512B0A86
:100A5C0004E0C8512D0A01E001D001D00FD0020EE4
:100A6C00EB6F010EEC6F8E0EED6F000EEE6FA7DDCF
:100A7C000C0EFC6F23EC00F0E581FFD2E5AD14D039
:100A8C003F50000A11E1010EFC6F23EC00F0010E47
:100A9C00EB6F010EEC6FE9C0EDF0EAC0EEF08FDD0C
:100AAC000F0EFC6F23EC00F03F50000A1DE1E5AB8C
:100ABC0015D0E8512D0A09E1E5B301D0E583E59B9A
:100ACC00E8C0F5F09BEC00F0D8D2E8512B0A06E117
:100ADC00E59BE8C0F5F09BEC00F0CFD2E8C03FF00E
:100AEC003E6AE597E589A7D0E59B3E50000A05E1F3
:100AFC003FC03EF0E8C03FF07BD01504016E026AA7
:100B0C00000E025A800E0218006E800E005C02E18C
:100B1C00000E015C25E31504006E016A000E015AFB
:100B2C00C70E0024E96E000E0120EA6EEE503E184E
:100B3C0017E1C70EE96E000EEA6E1550E926D8B023
:100B4C00EA2AEE502B0A0CE0C70EE96E000EEA6E94
:100B5C001550E926D8B0EA2AEE502D0A01E039D01A
:100B6C00020E155C016E026A000E025A800E02180B
:100B7C00006E800E005C02E1000E015C29E3020EA7
:100B8C00155C006E016A000E015AC70E0024E96E56
:100B9C00000E0120EA6EEE503E181AE11504006EAC
:100BAC00016A000E015AC70E0024E96E000E0120E6
:100BBC00EA6EEE503F180CE1C70EE96E000EEA6EBD
:100BCC001550E926D8B0EA2AEE50E81901E101D017
:100BDC000FD0020EEB6F010EEC6F820EED6F000E5C
:100BEC00EE6FEDDC0C0EFC6F23EC00F0E58145D2D2
:100BFC00E5A921D03F502D0A12E03F502B0A0FE0FF
:100C0C00020EEB6F010EEC6F780EED6F000EEE6FB7
:100C1C00D6DC0C0EFC6F23EC00F0E5812ED23F509D
:100C2C002D0A09E1E5B501D0E5853E502D0A03E119
:100C3C00E5952B0E166EE8C0F5F09BEC00F01DD27E
:100C4C00B6DD1BD20C0EFC6F23EC00F0E8C0F5F007
:100C5C009BEC00F0E58DE5A93AD11650000A08E1AD
:100C6C003E50000A03E13FC016F002D03EC016F021
:100C7C00E5A314D0006A016A026A036A3A50005E66
:100C8C003B50015A3C50025A3D50035A00C03AF0B6
:100C9C0001C03BF002C03CF003C03DF0E5A514D010
:100CAC00006A016A026A036A3650005E3750015AC4
:100CBC003850025A3950035A00C036F001C037F090
:100CCC0002C038F003C039F0A2D036503A24006E7E
:100CDC0037503B20016E38503C20026E39503D207D
:100CEC00036E00C032F001C033F002C034F003C018
:100CFC0035F000C03AF001C03BF002C03CF003C03C
:100D0C003DF094D03AC000F03BC001F03CC002F082
:100D1C003DC003F03650005E3750015A3850025A2D
:100D2C003950035A00C032F001C033F002C034F025
:100D3C0003C035F000C03AF001C03BF002C03CF0FB
:100D4C0003C03DF073D03AC000F03BC001F03CC092
:100D5C0002F03DC003F036C004F037C005F038C0D7
:100D6C0006F039C007F06CDD00C032F001C033F082
:100D7C0002C034F003C035F000C03AF001C03BF0C3
:100D8C0002C03CF003C03DF051D036503710381043
:100D9C0039101BE036C004F037C005F038C006F03F
:100DAC0039C007F03AC000F03BC001F03CC002F083
:100DBC003DC003F023EC02F000C032F001C033F070
:100DCC0002C034F003C035F010D00001E581020EF2
:100DDC00EB6F010EEC6FB80EED6F000EEE6FE5ECE5
:100DEC0002F00C0EFC6F23EC00F020D00001020E80
:100DFC00EB6F010EEC6FA60EED6F000EEE6FE5ECD7
:100E0C0002F00C0EFC6F23EC00F0E5810FD01650B5
:100E1C002B0AD8B45AD716502D0AD8B473D71650FB
:100E2C002A0A91E016502F0AB0E0E0D70001E5B194
:100E3C003FD0D60EF56F000EF66FF76B0F0EF86FF6
:100E4C00000EF96F7DEC00F032C0EBF033C0ECF02B
:100E5C00D60EED6F000EEE6F3DDCD60EEB6F000E76
:100E6C00EC6F17DD00C0E9F001C0EAF000C0EBF058
:100E7C0001C0ECF0CFDC3F6A3E6A166AE595366A33
:100E8C00376A386A396A32C03AF033C03BF034C042
:100E9C003CF035C03DF0156AC70EF56F000EF66FCD
:100EAC00F76B0F0EF86F000EF96F7DEC00F00FD0A2
:100EBC00E581020EEB6F010EEC6F9A0EED6F000EDA
:100ECC00EE6FE5EC02F00C0EFC6F23EC00F0E597F6
:100EDC00E589D3D0E5AD14D03F50000A10E1E5818F
:100EEC00020EEB6F010EEC6F4C0EED6F000EEE6F01
:100EFC00E5EC02F00C0EFC6F23EC00F0BED0E59D8F
:100F0C00300EE85DE66FE59BE8C0F5F09BEC00F079
:100F1C00E5A74CD0800E000A006E800E3D18005CD8
:100F2C0008E13C50000805E13B507F0802E13A50D3
:100F3C00FF0810E3800E3D18006E7F0E005C08E188
:100F4C00FF0E3C5C05E1800E3B5C02E1000E3A5C5E
:100F5C0001E310D0020EEB6F010EEC6F400EED6F43
:100F6C00000EEE6FE5EC02F00C0EFC6F23EC00F0C3
:100F7C00E5811BD00A0E006E000E016E026E036E30
:100F8C003AC004F03BC005F03CC006F03DC007F091
:100F9C0057DCE65100243A6E000E01203B6E000E29
:100FAC0002203C6E000E03203D6E4DD0800E000AD8
:100FBC00006E800E3918005C08E13850000805E11D
:100FCC0037507F0802E13650FF0810E3800E3918C5
:100FDC00006E7F0E005C08E1FF0E385C05E1800EB0
:100FEC00375C02E1000E365C01E311D00001020E09
:100FFC00EB6F010EEC6F6C0EED6F000EEE6FE5EC0F
:10100C0002F00C0EFC6F23EC00F0E5811CD000010B
:10101C000A0E006E000E016E026E036E36C004F0F6
:10102C0037C005F038C006F039C007F009DCE651CE
:10103C000024366E000E0120376E000E0220386E32
:10104C00000E0320396E19D0E8512B0AD8B4E6D41F
:10105C00E8512D0AD8B4E2D4E8512F0AD8B4DED422
:10106C00E8512A0AD8B4DAD4E851430AD8B4E8D5FE
:10107C00E8513D0AD8B4E6D52DD70F0E155C02E227
:10108C00152A0FD0020EEB6F010EEC6F5A0EED6F9E
:10109C00000EEE6FE5EC02F00C0EFC6F23EC00F092
:0610AC00E58189D4FFD7A5
:1011640010EE15F0B20E006E010E016EB20EF66EA8
:0E117400100EF76E000EF86EDDEC02F01200A9
:0110B200003D
:0110B300003C
:1010B4003738392F3435362A3132332D43303D2BEE
:0B10C40043414C43554C41544F520037
:0410CF00000000001D
:0410D3000000000019
:0410D7000000000015
:0110DB000014
:0110DC000013
:0C10DD004552523A204F7065725F31009E
:0E10E9004552523A204E6F6E206F70657200B5
:1010F7004552523A20496E7075742065786365656C
:02110700640082
:0C1109004552523A204F7065725F320070
:0A1115004552523A206F70657200D7
:0C111F004552523A206F70657220320079
:0C112B004552523A206F7065722031006E
:0C1137004552523A20526573756C7400EA
:101143004552523A20696E76616C6964204F70652E
:02115300720028
:0F1155004552523A206F70657232203D203000B3
:020000040030CA
:0D000100220F0EFF0181FF0FC00FE00F4026
:00000001FF
