:100000007DEF06F00000000000EF00F000000000AF
:0A0010000000000000000000F3D71C
:08001C000000000000001200CA
:0E0024002D0E0D6E0D2EFED7000000001200F6
:10003200140E0C6EBE0E0D6E0D2EFED70C2EFCD7BE
:0400420000001200A8
:10004600010103BF02D0829601D0828603BD02D091
:10005600829401D0828403BB02D0829201D0828234
:1000660003B902D0829001D082800001E7B102D0AC
:10007600828801D08298828ACEDF829A010103B7F4
:1000860002D0829601D0828603B502D0829401D036
:10009600828403B302D0829201D0828203B102D05D
:1000A600829001D082800001E7B102D0828801D01F
:1000B6008298828AB0DF829AE7A102D0B7DF01D0A8
:0400C600AEDF120097
:1000CA000B6A0A6A096A086A0E6A03340836045017
:1000DA00085E0550D8A0053C095E0650D8A0063C2B
:1000EA000A5E0750D8A0073C0B5EE86AD8A0010E4A
:1000FA000E5E0336070E0C6E0334083609360A36CE
:10010A000B360E36045003A012D0085E0550D8A054
:10011A00053C095E0650D8A0063C0A5E0750D8A0E6
:10012A00073C0B5EE86AD8A0010E0E5E11D00826C5
:10013A000550D8B0053C09260650D8B0063C0A2618
:10014A000750D8B0073C0B26E86AD8B0010E0E2635
:10015A0003360C2ED1D70234083609360A360B3646
:10016A000E36045003A012D0085E0550D8A0053CF4
:10017A00095E0650D8A0063C0A5E0750D8A0073C84
:10018A000B5EE86AD8A0010E0E5E11D00826055053
:10019A00D8B0053C09260650D8B0063C0A260750B6
:1001AA00D8B0073C0B26E86AD8B0010E0E260236F4
:1001BA00070E0C6E0234083609360A360B360E362E
:1001CA00045002A012D0085E0550D8A0053C095E72
:1001DA000650D8A0063C0A5E0750D8A0073C0B5E22
:1001EA00E86AD8A0010E0E5E11D008260550D8B0D4
:1001FA00053C09260650D8B0063C0A260750D8B056
:10020A00073C0B26E86AD8B0010E0E2602360C2EE1
:10021A00D1D70134083609360A360B360E36045061
:10022A0002A012D0085E0550D8A0053C095E06500F
:10023A00D8A0063C0A5E0750D8A0073C0B5EE86AC5
:10024A00D8A0010E0E5E11D008260550D8B0053C84
:10025A0009260650D8B0063C0A260750D8B0073CF3
:10026A000B26E86AD8B0010E0E260136070E0C6E70
:10027A000134083609360A360B360E36045001A008
:10028A0012D0085E0550D8A0053C095E0650D8A0D9
:10029A00063C0A5E0750D8A0073C0B5EE86AD8A065
:1002AA00010E0E5E11D008260550D8B0053C09266D
:1002BA000650D8B0063C0A260750D8B0073C0B2691
:1002CA00E86AD8B0010E0E2601360C2ED1D70034BA
:1002DA00083609360A360B360E36045001A012D0FB
:1002EA00085E0550D8A0053C095E0650D8A0063C19
:1002FA000A5E0750D8A0073C0B5EE86AD8A0010E38
:10030A000E5E11D008260550D8B0053C09260650C5
:10031A00D8B0063C0A260750D8B0073C0B26E86A34
:10032A00D8B0010E0E260036070E0C6E00340836C1
:10033A0009360A360B360E36045000A012D0085E73
:10034A000550D8A0053C095E0650D8A0063C0A5EB6
:10035A000750D8A0073C0B5EE86AD8A0010E0E5ED3
:10036A0011D008260550D8B0053C09260650D8B049
:10037A00063C0A260750D8B0073C0B26E86AD8B0D4
:10038A00010E0E2600360C2ED1D700B00ED0045026
:10039A0008260550D8B0053C09260650D8B0063CB8
:0C03AA000A260750D8B0073C0B261200B2
:1003B600F9C002F0FAC003F0FCC000F0FDC001F085
:1003C600010E0001FC5F000EFD5B0050011009E00C
:1003D60002C0E1FF03C0E2FFFBC0E6FF024A032AB8
:0C03E600EBD7F9C000F0FAC001F01200E3
:0E03F2000001E791F9C003F125DEE78112005A
:100400000101016B026B000E025D02E10A0E015D4B
:100410000FE201510001FD25E16E010102510001D1
:10042000FE21E26E200EE66E0101014B022BEBD79E
:1004300001510001FD25E16E010102510001FE2183
:10044000E26EE66A010E0101015F000E025B0151DE
:100450000001FD25FF6F010102510001FE21010194
:10046000006F0A0E046E000E056E066E076EF9C070
:1004700000F0FAC001F0FBC002F0FCC003F025DE82
:1004800008C000F009C001F00AC002F00BC003F080
:10049000300E0026FFC0E1FF00C1E2FF00C0E6FF12
:1004A0000A0E046E000E056E066E076EF9C000F0AF
:1004B000FAC001F0FBC002F0FCC003F006DE00C091
:1004C000F9F001C0FAF002C0FBF003C0FCF0000E2E
:1004D000046E031808E10450021805E104500118E5
:1004E00002E10050000A01E105D0010E015F000E9B
:0604F000025BADD7120013
:1004F6000B1E0A1E091E081E082AD8B4092AD8B4DB
:080506000A2AD8B40B2A1200E6
:10050E000450085E0550D8A0053C095E0650D8A0E0
:10051E00063C0A5E0750D8A0073C0B5E0336070E5A
:10052E000C6E0334083609360A360B36045003A017
:10053E000ED0085E0550D8A0053C095E0650D8A026
:10054E00063C0A5E0750D8A0073C0B5E0DD008266D
:10055E000550D8B0053C09260650D8B0063C0A26F0
:10056E000750D8B0073C0B2603360C2EDAD70234D0
:10057E00083609360A360B36045003A00ED0085E34
:10058E000550D8A0053C095E0650D8A0063C0A5E70
:10059E000750D8A0073C0B5E0DD008260550D8B0EA
:1005AE00053C09260650D8B0063C0A260750D8B09E
:1005BE00073C0B260236070E0C6E0234083609363F
:1005CE000A360B36045002A00ED0085E0550D8A095
:1005DE00053C095E0650D8A0063C0A5E0750D8A01E
:1005EE00073C0B5E0DD008260550D8B0053C0926F9
:1005FE000650D8B0063C0A260750D8B0073C0B264A
:10060E0002360C2EDAD70134083609360A360B3686
:10061E00045002A00ED0085E0550D8A0053C095E1D
:10062E000650D8A0063C0A5E0750D8A0073C0B5EC9
:10063E000DD008260550D8B0053C09260650D8B076
:10064E00063C0A260750D8B0073C0B260136070E8B
:10065E000C6E0134083609360A360B36045001A0EA
:10066E000ED0085E0550D8A0053C095E0650D8A0F5
:10067E00063C0A5E0750D8A0073C0B5E0DD008263C
:10068E000550D8B0053C09260650D8B0063C0A26BF
:10069E000750D8B0073C0B2601360C2EDAD70034A3
:1006AE00083609360A360B36045001A00ED0085E05
:1006BE000550D8A0053C095E0650D8A0063C0A5E3F
:1006CE000750D8A0073C0B5E0DD008260550D8B0B9
:1006DE00053C09260650D8B0063C0A260750D8B06D
:1006EE00073C0B260036070E0C6E00340836093612
:1006FE000A360B36045000A00ED0085E0550D8A066
:10070E00053C095E0650D8A0063C0A5E0750D8A0EC
:10071E00073C0B5E0DD008260550D8B0053C0926C7
:10072E000650D8B0063C0A260750D8B0073C0B2618
:10073E0000360C2EDAD700B00ED004500826055025
:10074E00D8B0053C09260650D8B0063C0A260750FC
:08075E00D8B0073C0B26120085
:100766000450000A12E10550000A0FE10650000A83
:100776000CE10750000A09E1FF0E006EFF0E016E44
:10078600FF0E026E7F0E036E97D00C6A07BE0C2A10
:100796000D6A0B6A0A6A096A086A03500210011098
:1007A6000010D8B484D0035007180E6E0EBE0D1E6E
:1007B60007AE0BD0041E051E061E071E042AD8B45B
:1007C600052AD8B4062AD8B4072A03AE0BD0001ED1
:1007D600011E021E031E002AD8B4012AD8B4022A1A
:1007E600D8B4032A035007100E6E0EBE1CD08CDE42
:1007F6000CBE36D00DAE5BD0001E011E021E031EBF
:10080600002AD8B4012AD8B4022AD8B4032A081E6A
:10081600091E0A1E0B1E082AD8B4092AD8B40A2AA9
:10082600D8B40B2A44D007AE15D003BE0DD0035062
:100836000B6E02500A6E0150096E0050086E036A74
:10084600026A016A006AD6D7036A026A016A006A06
:10085600002A000C031E021E011E001E0C8EC7D7A6
:10086600082AD8B4092AD8B40A2AD8B40B2A0450BC
:10087600085CD8A4BFD70550095CD8A4BBD70650DE
:100886000A5CD8A4B7D707500B5CD8A4B3D70B6AB9
:100896000A6A096A086A002AD8B4012AD8B4022A60
:1008A600D8B4032A03AEA6D70E6A0E88FF0C0E6ACA
:0A08B6000CA001D01DDE000F12009F
:1008C000120E006E000E016E830E0024E16E0F0EFC
:0A08D0000120E26EFF0EE66E12003A
:1008DA000900F5CFE6FF0006FBE10106F9E1120087
:1008EA0010D0800E0001EB6F1AD0C00EEB6F17D03C
:1008FA00940EEB6F14D0D40EEB6F11D0800EEB6F09
:10090A000ED00001EB51010AECE0EB51020AEDE0D6
:10091A00EB51030AEDE0EB51040AEDE0EFD7EC05E9
:10092A00006EEB51002600C0EBF000C003F123EC8F
:10093A0000F0E791EF6BEF51ED25E96E000EEE2125
:10094A00EA6EEE520BE0EF51ED25E96E000EEE2154
:10095A00EA6EEECFF9F048DDEF2BEDD7E781120012
:10096A00949A94989490949294949496829A829851
:10097A00829682948292829019EC00F019EC00F02F
:10098A0019EC00F082828280828A0EEC00F0829A50
:10099A0019EC00F0828A0EEC00F0829A19EC00F051
:1009AA00828A0EEC00F0829A19EC00F08290828A18
:1009BA000EEC00F0829A19EC00F0828A0EEC00F03C
:1009CA00829A82928286828A0EEC00F0829A19ECCE
:1009DA0000F082968280828A0EEC00F0829A8290DF
:1009EA00828A0EEC00F0829A19EC00F0828A0EECF0
:1009FA0000F0829A8280828A0EEC00F0829A19ECC8
:100A0A0000F08290828A0EEC00F0829A82868284BA
:100A1A0082828280828A0EEC00F0829A19EC00F0BF
:060A2A000001E78112004B
:100A30000001F36BF46BEBC0F5F0ECC0F6F0EDC029
:100A4000F7F0EEC0F8F0800EEE19006E800E005C3C
:100A500008E1000EED5D05E1000EEC5D02E1000E27
:100A6000EB5D10E2010EF36F000EF46FF56BF66BA9
:100A7000F76BF86BEB51F55FEC51F65BED51F75B03
:100A8000EE51F85BF5C0F9F0F6C0FAF0F7C0FBF0F4
:100A9000F8C0FCF0EFC0FDF0F0C0FEF0B1DC0B0ED2
:100AA0000001F16F000EF26F000E006EF251005C5B
:100AB00002E1F151000819E2F151EF25E16EF25126
:100AC000F021E26E010EF15D006E000EF259016E32
:100AD0000050EF25E96E0150F021EA6EEECFE6FFFF
:100AE000010EF15F000EF25BDFD7EFC0E1FFF0C057
:100AF000E2FF200EE66EF351F4111AE0F16BF26B97
:100B0000F151EF25E96EF251F021EA6EEE50200A24
:100B100003E1F14BF22BF4D7010EF15F000EF25B13
:100B2000F151EF25E16EF251F021E26E2D0EE66EED
:020B30001200B1
:100B3200010E0101036F23EC00F00F0E0101036FA0
:100B420023EC00F03A6A3B6A3C6A3D6A366A376ACD
:100B5200386A396A326A336A346A356AE593E595E6
:100B6200E591E587E599E58BE59D3F6A3E6A166A60
:100B7200156AC70EF96F000EFA6FFB6B0F0EFC6F52
:100B8200000EFD6F17DCD60EF96F000EFA6FFB6BCD
:0C0B92000F0EFC6F000EFD6F0DDC12005A
:100B9E000001ED6BED51EB25E96E000EEC21EA6ED6
:100BAE00EE520BE0ED51EB25E96E000EEC21EA6EF4
:0C0BBE00EECFF9F017DCED2BEDD71200A4
:100BCA00220E0C6E086A096A0A6A0B6A0C06D8B405
:100BDA001FD0D8900B320A3209320832033202325D
:100BEA0001320032D8A0F2D70C06D8B409D004508A
:100BFA0008260550092206500A2207500B22EAD776
:100C0A00045008260550092206500A2207500B22D2
:020C1A001200C6
:100C1C000001ED6BEE6BEBC003F0ECC004F0EBC02D
:100C2C0005F0ECC006F003C0E9FF04C0EAFFEE508B
:100C3C00200A04E1ED51EE1101E110D0010EED6F2F
:100C4C00000EEE6F03C0E9FF04C0EAFF05C0E1FF30
:100C5C0006C0E2FFEECFE6FF054A062A03C001F00C
:100C6C0004C002F0034A042A01C0E9FF02C0EAFFF3
:100C7C00EE50000AD8E1EBC000F0ECC001F012001D
:100C8C000001EB6BED6BEE6B100EEF6F040EEE5D77
:100C9C002BE2F00E836E120E006E000E016E830EB0
:100CAC000024E16E0F0E0120E26EEF1D006E00C0FD
:100CBC00E6FF0EEC00F00EEC00F00F0E8314006E4D
:100CCC0000C0ECF000520AE0EDC0EBF0EC5304E095
:100CDC00EC33EC9FEB2BFAD7040EEE6FEF37EF9162
:0E0CEC00040EED27EE2BD2D7EBC000F0120065
:100CFA00A9EC0AF0E0DD34DE010E0101036F23ECFA
:100D0A0000F00C0E0101036F23EC00F0010EEB6FF3
:100D1A00010EEC6F270EED6F000EEE6FE1DD0F0E88
:100D2A000B6E070E0C6E9A0E0D6E0D2EFED70C2E44
:100D3A00FCD70B2EFAD70000F7DEA3DF00C0E8F0DD
:100D4A000052D8B4A6D3050E0B6E360E0C6E2C0EBE
:100D5A000D6E0D2EFED70C2EFCD70B2EFAD70000E7
:100D6A00E805006E016A000E015A170E0024E96EAA
:100D7A00000E0120EA6EEECF00F000C0E8F0C70EC8
:100D8A00E16E000EE26E1550E126D8B0E22A00C0EC
:100D9A00E6FFE5A104D0E851430A01E0CED74BD3E0
:100DAA00E5BD08D0C7512A0A04E0C7512F0A01E05D
:100DBA0001D017D0C7512B0A08E1C8512B0A04E009
:100DCA00C8512D0A01E001D00CD0C7512D0A08E103
:100DDA00C8512B0A04E0C8512D0A01E001D001D004
:100DEA0010D0020EEB6F010EEC6F8E0EED6F000E3F
:100DFA00EE6F76DD0C0E0101036F23EC00F0E58146
:100E0A0033D3E5AD16D03F50000A13E1010E0101BC
:100E1A00036F23EC00F0010EEB6F010EEC6FE9C0DB
:100E2A00EDF0EAC0EEF05CDD0F0E0101036F23EC7A
:100E3A0000F03F50000A1DE1E5AB15D0E8512D0A3C
:100E4A0009E1E5B301D0E583E59BE8C0F9F0F9ECE7
:100E5A0001F00AD3E8512B0A06E1E59BE8C0F9F054
:100E6A00F9EC01F001D3E8C03FF03E6AE597E58965
:100E7A00A9D0E59B3E50000A05E13FC03EF0E8C01C
:100E8A003FF07CD01504016E026A000E025A800EF1
:100E9A000218006E800E005C02E1000E015C25E380
:100EAA001504006E016A000E015AC70E0024E96E8D
:100EBA00000E0120EA6EEE503E1817E1C70EE96EE9
:100ECA00000EEA6E1550E926D8B0EA2AEE502B0A2F
:100EDA000CE0C70EE96E000EEA6E1550E926D8B08E
:100EEA00EA2AEE502D0A01E039D0020E155C016E95
:100EFA00026A000E025A800E0218006E800E005C12
:100F0A0002E1000E015C29E3020E155C006E016A23
:100F1A00000E015AC70E0024E96E000E0120EA6E87
:100F2A00EE503E181AE11504006E016A000E015ACD
:100F3A00C70E0024E96E000E0120EA6EEE503F183B
:100F4A000CE1C70EE96E000EEA6E1550E926D8B01C
:100F5A00EA2AEE50E81901E101D010D0020EEB6F37
:100F6A00010EEC6F820EED6F000EEE6FB9DC0C0E07
:100F7A000101036F23EC00F0E58176D2E5A922D0C6
:100F8A003F502D0A13E03F502B0A10E0020EEB6F80
:100F9A00010EEC6F780EED6F000EEE6FA1DC0C0EF9
:100FAA000101036F23EC00F0E5815ED23F502D0A68
:100FBA0009E1E5B501D0E5853E502D0A03E1E59545
:100FCA002B0E166EE8C0F9F0F9EC01F04DD2ACDD4B
:100FDA004BD20C0E0101036F23EC00F0E8C0F9F0CC
:100FEA00F9EC01F0E58DE5A964D11650000A08E193
:100FFA003E50000A03E13FC016F002D03EC016F090
:10100A00E5A314D0006A016A026A036A3A50005ED4
:10101A003B50015A3C50025A3D50035A00C03AF024
:10102A0001C03BF002C03CF003C03DF0E5A514D07E
:10103A00006A016A026A036A3650005E3750015A32
:10104A003850025A3950035A00C036F001C037F0FE
:10105A0002C038F003C039F0A4D036503A24006EEA
:10106A0037503B20016E38503C20026E39503D20EB
:10107A00036E00C032F001C033F002C034F003C086
:10108A0035F000C03AF001C03BF002C03CF003C0AA
:10109A003DF096D03AC000F03BC001F03CC002F0EF
:1010AA003DC003F03650005E3750015A3850025A9C
:1010BA003950035A00C032F001C033F002C034F094
:1010CA0003C035F000C03AF001C03BF002C03CF06A
:1010DA0003C03DF075D03AC000F03BC001F03CC0FF
:1010EA0002F03DC003F036C004F037C005F038C046
:1010FA0006F039C007F064DD00C032F001C033F0F9
:10110A0002C034F003C035F000C03AF001C03BF031
:10111A0002C03CF003C03DF053D0365037103810AF
:10112A0039101BE036C004F037C005F038C006F0AD
:10113A0039C007F03AC000F03BC001F03CC002F0F1
:10114A003DC003F0B3EC03F000C032F001C033F04D
:10115A0002C034F003C035F011D00001E581020E5F
:10116A00EB6F010EEC6FB80EED6F000EEE6F75ECC3
:10117A0004F00C0E0101036F23EC00F021D00001F2
:10118A00020EEB6F010EEC6FA60EED6F000EEE6F06
:10119A0075EC04F00C0E0101036F23EC00F0E581FD
:1011AA000FD016502B0AD8B458D716502D0AD8B4D7
:1011BA0071D716502A0A8FE016502F0AAEE0DFD7F1
:1011CA000001E5B164D0800E000A006E800E351869
:1011DA00005C08E13450000805E133507F0802E161
:1011EA003250FF0854E3800E3518006E7F0E005C03
:1011FA0008E1FF0E345C05E1800E335C02E1000E6B
:10120A00325C45E30001D60EF96F000EFA6FFB6BF4
:10121A000F0EFC6F000EFD6FDBEC01F032C0EBF03D
:10122A0033C0ECF034C0EDF035C0EEF0D60EEF6FFF
:10123A00000EF06F18EC05F0D60EEB6F000EEC6F97
:10124A00E8DC00C0E9F001C0EAF000C0EBF001C040
:10125A00ECF0A0DC3F6A3E6A166AE595366A376AA0
:10126A00386A396A32C03AF033C03BF034C03CF0D5
:10127A0035C03DF0156AC70EF96F000EFA6FFB6BA9
:10128A000F0EFC6F000EFD6FDBEC01F012D00001B7
:10129A00E581020EEB6F010EEC6F9A0EED6F000EF8
:1012AA00EE6F75EC04F00C0E0101036F23EC00F0F5
:1012BA00DBD0E597E589D8D0E5AD15D03F50000AD7
:1012CA0011E1E581020EEB6F010EEC6F4C0EED6F32
:1012DA00000EEE6F75EC04F00C0E0101036F23ECA7
:1012EA0000F0C2D0E59D300EE85DE66FE59BE8C0F0
:1012FA00F9F0F9EC01F0E5A74ED0800E000A006E75
:10130A00800E3D18005C08E13C50000805E13B50A6
:10131A007F0802E13A50FF0810E3800E3D18006E84
:10132A007F0E005C08E1FF0E3C5C05E1800E3B5C31
:10133A0002E1000E3A5C01E312D00001020EEB6FEB
:10134A00010EEC6F400EED6F000EEE6F75EC04F0BF
:10135A000C0E0101036F23EC00F0E5811BD00A0E8D
:10136A00006E000E016E026E036E3AC004F03BC0BE
:10137A0005F03CC006F03DC007F022DCE65100242F
:10138A003A6E000E01203B6E000E02203C6E000EEB
:10139A0003203D6E4FD0800E000A006E800E391871
:1013AA00005C08E13850000805E137507F0802E187
:1013BA003650FF0810E3800E3918006E7F0E005C6D
:1013CA0008E1FF0E385C05E1800E375C02E1000E91
:1013DA00365C01E312D00001020EEB6F010EEC6FD6
:1013EA006C0EED6F000EEE6F75EC04F00C0E010141
:1013FA00036F23EC00F0E5811DD000010A0E006E98
:10140A00000E016E026E036E36C004F037C005F09E
:10141A0038C006F039C007F0E5EC05F0E6510024C3
:10142A00366E000E0120376E000E0220386E000E56
:10143A000320396E19D0E8512B0AD8B4B1D4E85137
:10144A002D0AD8B4ADD4E8512F0AD8B4A9D4E8519A
:10145A002A0AD8B4A5D4E851430AD8B4B8D5E85171
:10146A003D0AD8B4B6D528D70F0E155C02E2152A64
:10147A0010D0020EEB6F010EEC6F5A0EED6F000EDC
:10148A00EE6F75EC04F00C0E0101036F23EC00F013
:06149A00E58153D4FFD7E9
:1015520010EE15F0B20E006E010E016EA00EF66EC8
:0E156200140EF76E000EF86E6DEC04F0120021
:0114A000004B
:0114A100004A
:1014A2003738392F3435362A3132332D43303D2BFC
:0B14B20043414C43554C41544F520045
:0414BD00000000002B
:0414C1000000000027
:0414C5000000000023
:0114C9000022
:0114CA000021
:0C14CB004552523A204F7065725F3100AC
:0E14D7004552523A204E6F6E206F70657200C3
:1014E5004552523A20496E7075742065786365657A
:0214F500640091
:0C14F7004552523A204F7065725F32007F
:0A1503004552523A206F70657200E5
:0C150D004552523A206F70657220320087
:0C1519004552523A206F7065722031007C
:0C1525004552523A20526573756C7400F8
:101531004552523A20696E76616C6964204F70653C
:02154100720036
:0F1543004552523A206F70657232203D203000C1
:020000040030CA
:0D000100220F0EFF0181FF0FC00FE00F4026
:00000001FF
